:020000040800F2
:1000000000000120050300080B030008110300088D
:1000100033030008390300085B03000800000000F8
:100020000000000000000000000000007D03000848
:100030008303000800000000890300088F03000804
:10004000AD030008AD030008AD030008AD030008D0
:10005000AD030008AD030008AD030008AD030008C0
:10006000AD030008AD030008AD030008AD030008B0
:10007000AD030008AD030008AD030008AD030008A0
:10008000AD030008AD030008AD0300080000000048
:10009000000000000000000000000000AD030008A8
:1000A000AD030008AD030008AD030008AD03000870
:1000B000AD030008AD030008AD030008AD03000860
:1000C000AD030008AD030008AD030008AD03000850
:1000D000AD030008AD030008AD03000800000000F8
:1000E000AD030008AD030008AD03000800000000E8
:1000F000000000000000000000000000AD03000848
:1001000000000000AD030008AD030008AD030008C7
:1001100000000000000000000000000000000000DF
:10012000AD030008AD030008AD030008AD030008EF
:10013000AD03000800000000000000000000000007
:10014000000000000000000000000000AD030008F7
:10015000AD030008AD030008AD030008AD030008BF
:10016000AD030008AD03000800000000000000001F
:10017000000000000000000000000000000000007F
:1001800000000000AD0300080000000000000000B7
:10019000AD03000880B596B000AF00F037F94F4BC3
:1001A0007B6524E07B6D1A1D7A651B683B647B6D63
:1001B0001A1D7A651B68FB637B6D1A1D7A651B68C7
:1001C000BB633B6C7B63FB6B3B63BB6BFB623B6B5F
:1001D000BB6207E07A6B131D7B63BB6A191DB962B2
:1001E00012681A60FA6ABB6A9A42F3D800BF7B6D44
:1001F0003B4A9342D6D33B4B3B651AE03B6D1A1DFD
:100200003A651B68BB643B6D1A1D3A651B687B64CD
:10021000BB6C7B627B6C3B627B6AFB6104E0FB69CD
:100220001A1DFA6100221A603A6AFB699A42F6D8EE
:1002300000BF3B6D2C4A9342E0D300F0F5F83A1D25
:1002400007F108031146184600F0CEF8274A284B5C
:10025000D31A9B103B610023FB6007E0244AFB6834
:1002600052F823309847FB680133FB603A69FB681A
:100270009A42F3DC1F4A204BD31A9B103B610023A8
:10028000FB6007E01C4AFB6852F823309847FB6884
:100290000133FB603A69FB689A42F3DC00BFBB683C
:1002A0007A681146184600F081F9F864134A144B35
:1002B000D31A9B10BB61BB697B6108E07B69013B82
:1002C0000F4A52F8233098477B69013B7B617B6979
:1002D000002BF3DC00BFF86C00F080F8B4030008DA
:1002E000CC030008CC030008DC030008DC03000892
:1002F000DC030008DC030008DC030008DC03000862
:10030000DC0300082548004700BF80B400AFFEE7CB
:100310001EF0040F0CBFEFF30880EFF30980714665
:100320001F4A104700BF80B483B000AF78603960C7
:10033000FEE780B400AFFEE71EF0040F0CBFEFF342
:100340000880EFF309807146164A104700BF80B459
:1003500083B000AF78603960FEE71EF0040F0CBF79
:10036000EFF30880EFF3098071460F4A104700BF92
:1003700080B483B000AF78603960FEE780B400AF2E
:10038000FEE780B400AFFEE780B400AFFEE780B4C4
:1003900000AF00BFBD4680BC70470000950100085B
:1003A000270300084F0300087103000880B400AF62
:0203B000FEE766
:1003B400940D0008000000200C000020940D00089B
:1003C40000000010000000100C00002010000020AD
:0803D400000000100000001001
:1003DC0080B582B000AF786000F03CF880B483B098
:1003EC0000AF786039607B6801221A603B68034A71
:1003FC001A6000BF0C37BD4680BC7047000000205F
:10040C0080B500AF00F02AF8024B034A9A6000BF97
:10041C0080BD00BF00ED00E00000000880B500AF1B
:10042C0000F028F800BF80BD80B400AFBFF34F8F41
:10043C0000BF064BDB6803F4E0620449044B134332
:10044C00CB60BFF34F8F00BF00BFFDE700ED00E0B6
:10045C000400FA0580B500AFFFF7E6FF80B400AFEB
:10046C00034B4FF000629A6000BFBD4680BC7047E2
:10047C0000ED00E080B487B000AF00233B610023A7
:10048C007B610223FB600023BB6002237B60344B47
:10049C009B6803F00C033B613B69082B11D03B6953
:1004AC00082B44D83B69002B03D03B69042B04D0A8
:1004BC003DE02C4B2C4A1A603DE02A4B2B4A1A602B
:1004CC0039E0274B5B689B0D03F00103BB60244BA9
:1004DC005B6803F03F037B60BB68002B0CD0234AA6
:1004EC007B68B2FBF3F31E4A52689209C2F308020E
:1004FC0002FB03F37B610BE01B4A7B68B2FBF3F35B
:10050C00174A52689209C2F3080202FB03F37B619B
:10051C00134B5B681B0C03F0030301335B00FB60A4
:10052C007A69FB68B2FBF3F30E4A136003E00D4BE0
:10053C000D4A1A6000BF0A4B9B681B0903F00F039E
:10054C000B4AD35C3B61074B1A683B6922FA03F3F5
:10055C00044A136000BF1C37BD4680BC704700BF07
:10056C0000380240080000200024F40000127A0039
:10057C00780D000880B483B000AF00237B6002E0EC
:10058C007B6801337B607B68044A9342F8D900BFD7
:10059C0000BF0C37BD4680BC704700BF9F86010072
:1005AC0080B582B000AF00F0AFF9002000F0BAF9CE
:1005BC00012000F0B7F900F009FA00237B6000235A
:1005CC007B6009E07B68D9B200230122412000F056
:1005DC00A1FA7B6801337B607B68062BF2D900F0B3
:1005EC002DFAFFF7C7FFFAE780B582B000AF00F035
:1005FC0087FA0346FB71FB79092B00F27F8101A27C
:10060C0052F823F03906000881060008C9060008D4
:10061C001107000859070008A1070008E90700089E
:10062C003108000879080008C108000801220021DF
:10063C00412000F025FB01220121412000F020FB8C
:10064C0001220221412000F01BFB01220321412049
:10065C0000F016FB01220421412000F011FB0122C5
:10066C000521412000F00CFB00220621412000F066
:10067C0007FB44E100220021412000F001FB012294
:10068C000121412000F0FCFA01220221412000F05E
:10069C00F7FA00220321412000F0F2FA0022042193
:1006AC00412000F0EDFA00220521412000F0E8FA8B
:1006BC0000220621412000F0E3FA20E10122002172
:1006CC00412000F0DDFA01220121412000F0D8FA8E
:1006DC0000220221412000F0D3FA01220321412003
:1006EC0000F0CEFA01220421412000F0C9FA0022C8
:1006FC000521412000F0C4FA01220621412000F01E
:10070C00BFFAFCE001220021412000F0B9FA0122DD
:10071C000121412000F0B4FA01220221412000F015
:10072C00AFFA01220321412000F0AAFA0022042191
:10073C00412000F0A5FA00220521412000F0A0FA8A
:10074C0001220621412000F09BFAD8E00022002172
:10075C00412000F095FA01220121412000F090FA8D
:10076C0001220221412000F08BFA002203214120BA
:10077C0000F086FA00220421412000F081FA0122C7
:10078C000521412000F07CFA01220621412000F0D5
:10079C0077FAB4E001220021412000F071FA002226
:1007AC000121412000F06CFA01220221412000F0CD
:1007BC0067FA01220321412000F062FA0022042191
:1007CC00412000F05DFA01220521412000F058FA89
:1007DC0001220621412000F053FA90E00122002171
:1007EC00412000F04DFA00220121412000F048FA8E
:1007FC0001220221412000F043FA01220321412071
:10080C0000F03EFA01220421412000F039FA0122C5
:10081C000521412000F034FA01220621412000F08C
:10082C002FFA6CE001220021412000F029FA01226C
:10083C000121412000F024FA01220221412000F084
:10084C001FFA00220321412000F01AFA0022042191
:10085C00412000F015FA00220521412000F010FA89
:10086C0000220621412000F00BFA48E00122002171
:10087C00412000F005FA01220121412000F000FA8C
:10088C0001220221412000F0FBF901220321412029
:10089C0000F0F6F901220421412000F0F1F90122C7
:1008AC000521412000F0ECF901220621412000F045
:1008BC00E7F924E001220021412000F0E1F90122B6
:1008CC000121412000F0DCF901220221412000F03D
:1008DC00D7F901220321412000F0D2F90022042192
:1008EC00412000F0CDF901220521412000F0C8F98A
:1008FC0001220621412000F0C3F900E000BF00BF37
:10090C000837BD4680BD00BF80B400AF044B1B68E8
:10091C00034A43F00103136000BFBD4680BC70471F
:10092C000038024080B485B000AF0346FB71FB7900
:10093C005B09FB73FB7903F01F03BB73FB7B032B7E
:10094C0036D801A252F823F0650900087B0900088B
:10095C0091090008A7090008184B1B68BA7B0121F4
:10096C0001FA02F21146154A0B43136021E0144BB5
:10097C001B68BA7B012101FA02F21146104A0B43A3
:10098C00136016E00F4B1B68BA7B012101FA02F2CF
:10099C0011460C4A0B4313600BE00B4B1B68BA7BE4
:1009AC00012101FA02F21146074A0B43136000E0E1
:1009BC0000BF00BF1437BD4680BC704730380240C2
:1009CC0034380240403802404438024080B582B08E
:1009DC0000AF0023FB710023FB7108E0F9790223BF
:1009EC000022422000F096F8FB790133FB71FB7971
:1009FC00022BF3D90523FB7108E0F97900230122BE
:100A0C00422000F087F8FB790133FB71FB79082B4E
:100A1C00F3D90523FB7108E0FB790122194642202A
:100A2C0000F02EF9FB790133FB71FB79082BF3D91C
:100A3C0000BF00BF0837BD4680BD000080B582B046
:100A4C0000AF0523FB714BE0FB79002219464220D5
:100A5C0000F016F90023BB7136E0BB791946422031
:100A6C0000F052F90346002B18D1214B1B78002BB8
:100A7C0027D1FB795A1FB9791E4813465B001344E2
:100A8C0003440B441A781C4B1A70194B01221A7030
:100A9C001A4B00221A70FFF7A7FD12E0174B1B78B8
:100AAC000133DAB2154B1A70144B1B78042B08D98E
:100ABC000F4B00221A70104B00221A700F4B0022A1
:100ACC001A70BB790133BB71BB79022BC5D9FB7989
:100ADC0001221946422000F0D3F8FB790133FB7157
:100AEC00FB79082BB0D900BF00BF0837BD4680BDCD
:100AFC000E000020880D00080D0000200F000020C3
:100B0C0080B400AF024B1B781846BD4680BC7047C2
:100B1C000D00002090B484B000AF04460846114686
:100B2C001A462346FB710346BB710B467B71134679
:100B3C003B713B7903F00103FB733B795B08BB739F
:100B4C00FB79412B02D0422B44D087E0464B1B68EB
:100B5C00BA795200032101FA02F2D2431146424AF9
:100B6C000B401360404B1B687979BA79520001FA3B
:100B7C0002F211463C4A0B4313603C4B1B68BA799A
:100B8C00012101FA02F2D2431146384A0B4013609C
:100B9C00364B1B68F97BBA7901FA02F21146334ADB
:100BAC000B431360324B1B68BA795200032101FAD4
:100BBC0002F2D24311462E4A0B4013602C4B1B6899
:100BCC00B97BBA79520001FA02F21146284A0B435A
:100BDC00136043E0274B1B68BA795200032101FADA
:100BEC0002F2D2431146234A0B401360214B1B687F
:100BFC007979BA79520001FA02F211461D4A0B4377
:100C0C0013601D4B1B68BA79012101FA02F2D24321
:100C1C001146194A0B401360174B1B68F97BBA79C4
:100C2C0001FA02F21146144A0B431360134B1B6872
:100C3C00BA795200032101FA02F2D24311460F4A4B
:100C4C000B4013600D4B1B68B97BBA79520001FA4B
:100C5C0002F21146094A0B43136000BF00BF103764
:100C6C00BD4690BC704700BF00000240040002402B
:100C7C000C00024000040240040402400C04024038
:100C8C0080B483B000AF0346FB710B46BB711346B7
:100C9C007B71FB79412B02D0422B16D02BE0184BE9
:100CAC001B68BA79012101FA02F2D2431146144AA7
:100CBC000B401360124B1B687979BA7901FA02F276
:100CCC0011460F4A0B43136015E00E4B1B68BA79A3
:100CDC00012101FA02F2D24311460A4A0B40136079
:100CEC00084B1B687979BA7901FA02F21146054A68
:100CFC000B43136000BF00BF0C37BD4680BC704770
:100D0C00140002401404024080B485B000AF0346C6
:100D1C000A46FB711346BB710023FB73FB79412B15
:100D2C0002D0422B0CD017E00E4B1B68BA79012174
:100D3C0001FA02F21A40BB7922FA03F3FB730BE0BF
:100D4C00094B1B68BA79012101FA02F21A40BB79EE
:100D5C0022FA03F3FB7300BFFB7B18461437BD4626
:100D6C0080BC7047100002401004024000000000DC
:100D7C000000000001020304060708090102030435
:080D8C0005060708090000003C
:0C0D94000C000020000000000024F4000F
:040000050800019559
:00000001FF
